{
  "address": "0x5FbDB2315678afecb367f032d93F642f64180aa3",
  "abi": [
    {
      "inputs": [
        {
          "internalType": "string",
          "name": "nftCollectionName",
          "type": "string"
        },
        {
          "internalType": "string",
          "name": "nftCollectionSymbol",
          "type": "string"
        },
        {
          "internalType": "address payable",
          "name": "creator",
          "type": "address"
        }
      ],
      "stateMutability": "nonpayable",
      "type": "constructor"
    },
    {
      "anonymous": false,
      "inputs": [
        {
          "indexed": true,
          "internalType": "address",
          "name": "owner",
          "type": "address"
        },
        {
          "indexed": true,
          "internalType": "address",
          "name": "approved",
          "type": "address"
        },
        {
          "indexed": true,
          "internalType": "uint256",
          "name": "tokenId",
          "type": "uint256"
        }
      ],
      "name": "Approval",
      "type": "event"
    },
    {
      "anonymous": false,
      "inputs": [
        {
          "indexed": true,
          "internalType": "address",
          "name": "owner",
          "type": "address"
        },
        {
          "indexed": true,
          "internalType": "address",
          "name": "operator",
          "type": "address"
        },
        {
          "indexed": false,
          "internalType": "bool",
          "name": "approved",
          "type": "bool"
        }
      ],
      "name": "ApprovalForAll",
      "type": "event"
    },
    {
      "anonymous": false,
      "inputs": [
        {
          "indexed": true,
          "internalType": "bytes32",
          "name": "role",
          "type": "bytes32"
        },
        {
          "indexed": true,
          "internalType": "bytes32",
          "name": "previousAdminRole",
          "type": "bytes32"
        },
        {
          "indexed": true,
          "internalType": "bytes32",
          "name": "newAdminRole",
          "type": "bytes32"
        }
      ],
      "name": "RoleAdminChanged",
      "type": "event"
    },
    {
      "anonymous": false,
      "inputs": [
        {
          "indexed": true,
          "internalType": "bytes32",
          "name": "role",
          "type": "bytes32"
        },
        {
          "indexed": true,
          "internalType": "address",
          "name": "account",
          "type": "address"
        },
        {
          "indexed": true,
          "internalType": "address",
          "name": "sender",
          "type": "address"
        }
      ],
      "name": "RoleGranted",
      "type": "event"
    },
    {
      "anonymous": false,
      "inputs": [
        {
          "indexed": true,
          "internalType": "bytes32",
          "name": "role",
          "type": "bytes32"
        },
        {
          "indexed": true,
          "internalType": "address",
          "name": "account",
          "type": "address"
        },
        {
          "indexed": true,
          "internalType": "address",
          "name": "sender",
          "type": "address"
        }
      ],
      "name": "RoleRevoked",
      "type": "event"
    },
    {
      "anonymous": false,
      "inputs": [
        {
          "indexed": true,
          "internalType": "address",
          "name": "from",
          "type": "address"
        },
        {
          "indexed": true,
          "internalType": "address",
          "name": "to",
          "type": "address"
        },
        {
          "indexed": true,
          "internalType": "uint256",
          "name": "tokenId",
          "type": "uint256"
        }
      ],
      "name": "Transfer",
      "type": "event"
    },
    {
      "inputs": [],
      "name": "DEFAULT_ADMIN_ROLE",
      "outputs": [
        {
          "internalType": "bytes32",
          "name": "",
          "type": "bytes32"
        }
      ],
      "stateMutability": "view",
      "type": "function"
    },
    {
      "inputs": [
        {
          "internalType": "address",
          "name": "to",
          "type": "address"
        },
        {
          "internalType": "uint256",
          "name": "tokenId",
          "type": "uint256"
        }
      ],
      "name": "approve",
      "outputs": [],
      "stateMutability": "nonpayable",
      "type": "function"
    },
    {
      "inputs": [
        {
          "internalType": "address",
          "name": "owner",
          "type": "address"
        }
      ],
      "name": "balanceOf",
      "outputs": [
        {
          "internalType": "uint256",
          "name": "",
          "type": "uint256"
        }
      ],
      "stateMutability": "view",
      "type": "function"
    },
    {
      "inputs": [
        {
          "internalType": "uint256",
          "name": "tokenId",
          "type": "uint256"
        }
      ],
      "name": "getApproved",
      "outputs": [
        {
          "internalType": "address",
          "name": "",
          "type": "address"
        }
      ],
      "stateMutability": "view",
      "type": "function"
    },
    {
      "inputs": [
        {
          "internalType": "bytes32",
          "name": "role",
          "type": "bytes32"
        }
      ],
      "name": "getRoleAdmin",
      "outputs": [
        {
          "internalType": "bytes32",
          "name": "",
          "type": "bytes32"
        }
      ],
      "stateMutability": "view",
      "type": "function"
    },
    {
      "inputs": [
        {
          "internalType": "bytes32",
          "name": "role",
          "type": "bytes32"
        },
        {
          "internalType": "address",
          "name": "account",
          "type": "address"
        }
      ],
      "name": "grantRole",
      "outputs": [],
      "stateMutability": "nonpayable",
      "type": "function"
    },
    {
      "inputs": [
        {
          "internalType": "bytes32",
          "name": "role",
          "type": "bytes32"
        },
        {
          "internalType": "address",
          "name": "account",
          "type": "address"
        }
      ],
      "name": "hasRole",
      "outputs": [
        {
          "internalType": "bool",
          "name": "",
          "type": "bool"
        }
      ],
      "stateMutability": "view",
      "type": "function"
    },
    {
      "inputs": [
        {
          "internalType": "address",
          "name": "owner",
          "type": "address"
        },
        {
          "internalType": "address",
          "name": "operator",
          "type": "address"
        }
      ],
      "name": "isApprovedForAll",
      "outputs": [
        {
          "internalType": "bool",
          "name": "",
          "type": "bool"
        }
      ],
      "stateMutability": "view",
      "type": "function"
    },
    {
      "inputs": [],
      "name": "name",
      "outputs": [
        {
          "internalType": "string",
          "name": "",
          "type": "string"
        }
      ],
      "stateMutability": "view",
      "type": "function"
    },
    {
      "inputs": [
        {
          "internalType": "uint256",
          "name": "tokenId",
          "type": "uint256"
        }
      ],
      "name": "ownerOf",
      "outputs": [
        {
          "internalType": "address",
          "name": "",
          "type": "address"
        }
      ],
      "stateMutability": "view",
      "type": "function"
    },
    {
      "inputs": [
        {
          "internalType": "bytes32",
          "name": "role",
          "type": "bytes32"
        },
        {
          "internalType": "address",
          "name": "account",
          "type": "address"
        }
      ],
      "name": "renounceRole",
      "outputs": [],
      "stateMutability": "nonpayable",
      "type": "function"
    },
    {
      "inputs": [
        {
          "internalType": "bytes32",
          "name": "role",
          "type": "bytes32"
        },
        {
          "internalType": "address",
          "name": "account",
          "type": "address"
        }
      ],
      "name": "revokeRole",
      "outputs": [],
      "stateMutability": "nonpayable",
      "type": "function"
    },
    {
      "inputs": [
        {
          "internalType": "address",
          "name": "from",
          "type": "address"
        },
        {
          "internalType": "address",
          "name": "to",
          "type": "address"
        },
        {
          "internalType": "uint256",
          "name": "tokenId",
          "type": "uint256"
        }
      ],
      "name": "safeTransferFrom",
      "outputs": [],
      "stateMutability": "nonpayable",
      "type": "function"
    },
    {
      "inputs": [
        {
          "internalType": "address",
          "name": "from",
          "type": "address"
        },
        {
          "internalType": "address",
          "name": "to",
          "type": "address"
        },
        {
          "internalType": "uint256",
          "name": "tokenId",
          "type": "uint256"
        },
        {
          "internalType": "bytes",
          "name": "data",
          "type": "bytes"
        }
      ],
      "name": "safeTransferFrom",
      "outputs": [],
      "stateMutability": "nonpayable",
      "type": "function"
    },
    {
      "inputs": [
        {
          "internalType": "address",
          "name": "operator",
          "type": "address"
        },
        {
          "internalType": "bool",
          "name": "approved",
          "type": "bool"
        }
      ],
      "name": "setApprovalForAll",
      "outputs": [],
      "stateMutability": "nonpayable",
      "type": "function"
    },
    {
      "inputs": [
        {
          "internalType": "bytes4",
          "name": "interfaceId",
          "type": "bytes4"
        }
      ],
      "name": "supportsInterface",
      "outputs": [
        {
          "internalType": "bool",
          "name": "",
          "type": "bool"
        }
      ],
      "stateMutability": "view",
      "type": "function"
    },
    {
      "inputs": [],
      "name": "symbol",
      "outputs": [
        {
          "internalType": "string",
          "name": "",
          "type": "string"
        }
      ],
      "stateMutability": "view",
      "type": "function"
    },
    {
      "inputs": [
        {
          "internalType": "uint256",
          "name": "tokenId",
          "type": "uint256"
        }
      ],
      "name": "tokenURI",
      "outputs": [
        {
          "internalType": "string",
          "name": "",
          "type": "string"
        }
      ],
      "stateMutability": "view",
      "type": "function"
    },
    {
      "inputs": [
        {
          "internalType": "address",
          "name": "from",
          "type": "address"
        },
        {
          "internalType": "address",
          "name": "to",
          "type": "address"
        },
        {
          "internalType": "uint256",
          "name": "tokenId",
          "type": "uint256"
        }
      ],
      "name": "transferFrom",
      "outputs": [],
      "stateMutability": "nonpayable",
      "type": "function"
    }
  ],
  "transactionHash": "0x6837829122ee6eef5b89eceab3b5f7699af99b879b81ce23846b45db8c2e68a9",
  "args": [
    "Test Lazy NFT Studio",
    "TLFS",
    "0xf39Fd6e51aad88F6F4ce6aB8827279cffFb92266"
  ],
  "numDeployments": 1,
  "solcInputHash": "1e24f340ba57eca96b0e480bc5a93ca8",
  "bytecode": "0x6101406040523480156200001257600080fd5b5060405162003776380380620037768339818101604052810190620000389190620004b0565b6040518060400160405280600f81526020017f4c617a794e46542d566f756368657200000000000000000000000000000000008152506040518060400160405280600181526020017f310000000000000000000000000000000000000000000000000000000000000081525084848160009080519060200190620000be9291906200036b565b508060019080519060200190620000d79291906200036b565b50505060008280519060200120905060008280519060200120905060007f8b73c3c69bb8fe3d512ecc4cf759cc79239f7b179b0ffacaa9a75d522b39400f90508260e081815250508161010081815250504660a0818152505062000143818484620001ca60201b60201c565b608081815250503073ffffffffffffffffffffffffffffffffffffffff1660c08173ffffffffffffffffffffffffffffffffffffffff1660601b815250508061012081815250505050505050620001c17f828634d95e775031b9ff576b159a8509d3053581a8c9c4d7d86899e0afcd882f826200020660201b60201c565b505050620007d4565b60008383834630604051602001620001e79594939291906200057d565b6040516020818303038152906040528051906020012090509392505050565b620002188282620002f860201b60201c565b620002f45760016007600084815260200190815260200160002060000160008373ffffffffffffffffffffffffffffffffffffffff1673ffffffffffffffffffffffffffffffffffffffff16815260200190815260200160002060006101000a81548160ff021916908315150217905550620002996200036360201b60201c565b73ffffffffffffffffffffffffffffffffffffffff168173ffffffffffffffffffffffffffffffffffffffff16837f2f8788117e7eff1d82e926ec794901d17c78024a50270940304540a733656f0d60405160405180910390a45b5050565b60006007600084815260200190815260200160002060000160008373ffffffffffffffffffffffffffffffffffffffff1673ffffffffffffffffffffffffffffffffffffffff16815260200190815260200160002060009054906101000a900460ff16905092915050565b600033905090565b8280546200037990620006cb565b90600052602060002090601f0160209004810192826200039d5760008555620003e9565b82601f10620003b857805160ff1916838001178555620003e9565b82800160010185558215620003e9579182015b82811115620003e8578251825591602001919060010190620003cb565b5b509050620003f89190620003fc565b5090565b5b8082111562000417576000816000905550600101620003fd565b5090565b6000620004326200042c8462000603565b620005da565b9050828152602081018484840111156200045157620004506200079a565b5b6200045e84828562000695565b509392505050565b6000815190506200047781620007ba565b92915050565b600082601f83011262000495576200049462000795565b5b8151620004a78482602086016200041b565b91505092915050565b600080600060608486031215620004cc57620004cb620007a4565b5b600084015167ffffffffffffffff811115620004ed57620004ec6200079f565b5b620004fb868287016200047d565b935050602084015167ffffffffffffffff8111156200051f576200051e6200079f565b5b6200052d868287016200047d565b9250506040620005408682870162000466565b9150509250925092565b620005558162000639565b82525050565b620005668162000661565b82525050565b62000577816200068b565b82525050565b600060a0820190506200059460008301886200055b565b620005a360208301876200055b565b620005b260408301866200055b565b620005c160608301856200056c565b620005d060808301846200054a565b9695505050505050565b6000620005e6620005f9565b9050620005f4828262000701565b919050565b6000604051905090565b600067ffffffffffffffff82111562000621576200062062000766565b5b6200062c82620007a9565b9050602081019050919050565b600062000646826200066b565b9050919050565b60006200065a826200066b565b9050919050565b6000819050919050565b600073ffffffffffffffffffffffffffffffffffffffff82169050919050565b6000819050919050565b60005b83811015620006b557808201518184015260208101905062000698565b83811115620006c5576000848401525b50505050565b60006002820490506001821680620006e457607f821691505b60208210811415620006fb57620006fa62000737565b5b50919050565b6200070c82620007a9565b810181811067ffffffffffffffff821117156200072e576200072d62000766565b5b80604052505050565b7f4e487b7100000000000000000000000000000000000000000000000000000000600052602260045260246000fd5b7f4e487b7100000000000000000000000000000000000000000000000000000000600052604160045260246000fd5b600080fd5b600080fd5b600080fd5b600080fd5b6000601f19601f8301169050919050565b620007c5816200064d565b8114620007d157600080fd5b50565b60805160a05160c05160601c60e0516101005161012051612f6162000815600039600050506000505060005050600050506000505060005050612f616000f3fe608060405234801561001057600080fd5b50600436106101215760003560e01c80636352211e116100ad578063a22cb46511610071578063a22cb4651461032c578063b88d4fde14610348578063c87b56dd14610364578063d547741f14610394578063e985e9c5146103b057610121565b80636352211e1461026057806370a082311461029057806391d14854146102c057806395d89b41146102f0578063a217fddf1461030e57610121565b806323b872dd116100f457806323b872dd146101c0578063248a9ca3146101dc5780632f2ff15d1461020c57806336568abe1461022857806342842e0e1461024457610121565b806301ffc9a71461012657806306fdde0314610156578063081812fc14610174578063095ea7b3146101a4575b600080fd5b610140600480360381019061013b91906121d4565b6103e0565b60405161014d91906125c6565b60405180910390f35b61015e610402565b60405161016b91906125fc565b60405180910390f35b61018e6004803603810190610189919061222e565b610494565b60405161019b919061255f565b60405180910390f35b6101be60048036038101906101b99190612127565b6104da565b005b6101da60048036038101906101d59190612011565b6105f2565b005b6101f660048036038101906101f19190612167565b610652565b60405161020391906125e1565b60405180910390f35b61022660048036038101906102219190612194565b610672565b005b610242600480360381019061023d9190612194565b610693565b005b61025e60048036038101906102599190612011565b610716565b005b61027a6004803603810190610275919061222e565b610736565b604051610287919061255f565b60405180910390f35b6102aa60048036038101906102a59190611fa4565b6107bd565b6040516102b7919061277e565b60405180910390f35b6102da60048036038101906102d59190612194565b610875565b6040516102e791906125c6565b60405180910390f35b6102f86108e0565b60405161030591906125fc565b60405180910390f35b610316610972565b60405161032391906125e1565b60405180910390f35b610346600480360381019061034191906120e7565b610979565b005b610362600480360381019061035d9190612064565b61098f565b005b61037e6004803603810190610379919061222e565b6109f1565b60405161038b91906125fc565b60405180910390f35b6103ae60048036038101906103a99190612194565b610b04565b005b6103ca60048036038101906103c59190611fd1565b610b25565b6040516103d791906125c6565b60405180910390f35b60006103eb82610bb9565b806103fb57506103fa82610c9b565b5b9050919050565b60606000805461041190612a00565b80601f016020809104026020016040519081016040528092919081815260200182805461043d90612a00565b801561048a5780601f1061045f5761010080835404028352916020019161048a565b820191906000526020600020905b81548152906001019060200180831161046d57829003601f168201915b5050505050905090565b600061049f82610d15565b6004600083815260200190815260200160002060009054906101000a900473ffffffffffffffffffffffffffffffffffffffff169050919050565b60006104e582610736565b90508073ffffffffffffffffffffffffffffffffffffffff168373ffffffffffffffffffffffffffffffffffffffff161415610556576040517f08c379a000000000000000000000000000000000000000000000000000000000815260040161054d9061271e565b60405180910390fd5b8073ffffffffffffffffffffffffffffffffffffffff16610575610d60565b73ffffffffffffffffffffffffffffffffffffffff1614806105a457506105a38161059e610d60565b610b25565b5b6105e3576040517f08c379a00000000000000000000000000000000000000000000000000000000081526004016105da9061273e565b60405180910390fd5b6105ed8383610d68565b505050565b6106036105fd610d60565b82610e21565b610642576040517f08c379a00000000000000000000000000000000000000000000000000000000081526004016106399061263e565b60405180910390fd5b61064d838383610eb6565b505050565b600060076000838152602001908152602001600020600101549050919050565b61067b82610652565b610684816111b0565b61068e83836111c4565b505050565b61069b610d60565b73ffffffffffffffffffffffffffffffffffffffff168173ffffffffffffffffffffffffffffffffffffffff1614610708576040517f08c379a00000000000000000000000000000000000000000000000000000000081526004016106ff9061275e565b60405180910390fd5b61071282826112a5565b5050565b6107318383836040518060200160405280600081525061098f565b505050565b60008061074283611387565b9050600073ffffffffffffffffffffffffffffffffffffffff168173ffffffffffffffffffffffffffffffffffffffff1614156107b4576040517f08c379a00000000000000000000000000000000000000000000000000000000081526004016107ab906126fe565b60405180910390fd5b80915050919050565b60008073ffffffffffffffffffffffffffffffffffffffff168273ffffffffffffffffffffffffffffffffffffffff16141561082e576040517f08c379a0000000000000000000000000000000000000000000000000000000008152600401610825906126de565b60405180910390fd5b600360008373ffffffffffffffffffffffffffffffffffffffff1673ffffffffffffffffffffffffffffffffffffffff168152602001908152602001600020549050919050565b60006007600084815260200190815260200160002060000160008373ffffffffffffffffffffffffffffffffffffffff1673ffffffffffffffffffffffffffffffffffffffff16815260200190815260200160002060009054906101000a900460ff16905092915050565b6060600180546108ef90612a00565b80601f016020809104026020016040519081016040528092919081815260200182805461091b90612a00565b80156109685780601f1061093d57610100808354040283529160200191610968565b820191906000526020600020905b81548152906001019060200180831161094b57829003601f168201915b5050505050905090565b6000801b81565b61098b610984610d60565b83836113c4565b5050565b6109a061099a610d60565b83610e21565b6109df576040517f08c379a00000000000000000000000000000000000000000000000000000000081526004016109d69061263e565b60405180910390fd5b6109eb84848484611531565b50505050565b60606109fc82610d15565b6000600660008481526020019081526020016000208054610a1c90612a00565b80601f0160208091040260200160405190810160405280929190818152602001828054610a4890612a00565b8015610a955780601f10610a6a57610100808354040283529160200191610a95565b820191906000526020600020905b815481529060010190602001808311610a7857829003601f168201915b505050505090506000610aa661158d565b9050600081511415610abc578192505050610aff565b600082511115610af1578082604051602001610ad9929190612501565b60405160208183030381529060405292505050610aff565b610afa846115a4565b925050505b919050565b610b0d82610652565b610b16816111b0565b610b2083836112a5565b505050565b6000600560008473ffffffffffffffffffffffffffffffffffffffff1673ffffffffffffffffffffffffffffffffffffffff16815260200190815260200160002060008373ffffffffffffffffffffffffffffffffffffffff1673ffffffffffffffffffffffffffffffffffffffff16815260200190815260200160002060009054906101000a900460ff16905092915050565b60007f80ac58cd000000000000000000000000000000000000000000000000000000007bffffffffffffffffffffffffffffffffffffffffffffffffffffffff1916827bffffffffffffffffffffffffffffffffffffffffffffffffffffffff19161480610c8457507f5b5e139f000000000000000000000000000000000000000000000000000000007bffffffffffffffffffffffffffffffffffffffffffffffffffffffff1916827bffffffffffffffffffffffffffffffffffffffffffffffffffffffff1916145b80610c945750610c938261160c565b5b9050919050565b60007f7965db0b000000000000000000000000000000000000000000000000000000007bffffffffffffffffffffffffffffffffffffffffffffffffffffffff1916827bffffffffffffffffffffffffffffffffffffffffffffffffffffffff19161480610d0e5750610d0d82610bb9565b5b9050919050565b610d1e81611676565b610d5d576040517f08c379a0000000000000000000000000000000000000000000000000000000008152600401610d54906126fe565b60405180910390fd5b50565b600033905090565b816004600083815260200190815260200160002060006101000a81548173ffffffffffffffffffffffffffffffffffffffff021916908373ffffffffffffffffffffffffffffffffffffffff160217905550808273ffffffffffffffffffffffffffffffffffffffff16610ddb83610736565b73ffffffffffffffffffffffffffffffffffffffff167f8c5be1e5ebec7d5bd14f71427d1e84f3dd0314c0f7b2291e5b200ac8c7c3b92560405160405180910390a45050565b600080610e2d83610736565b90508073ffffffffffffffffffffffffffffffffffffffff168473ffffffffffffffffffffffffffffffffffffffff161480610e6f5750610e6e8185610b25565b5b80610ead57508373ffffffffffffffffffffffffffffffffffffffff16610e9584610494565b73ffffffffffffffffffffffffffffffffffffffff16145b91505092915050565b8273ffffffffffffffffffffffffffffffffffffffff16610ed682610736565b73ffffffffffffffffffffffffffffffffffffffff1614610f2c576040517f08c379a0000000000000000000000000000000000000000000000000000000008152600401610f239061267e565b60405180910390fd5b600073ffffffffffffffffffffffffffffffffffffffff168273ffffffffffffffffffffffffffffffffffffffff161415610f9c576040517f08c379a0000000000000000000000000000000000000000000000000000000008152600401610f939061269e565b60405180910390fd5b610fa983838360016116b7565b8273ffffffffffffffffffffffffffffffffffffffff16610fc982610736565b73ffffffffffffffffffffffffffffffffffffffff161461101f576040517f08c379a00000000000000000000000000000000000000000000000000000000081526004016110169061267e565b60405180910390fd5b6004600082815260200190815260200160002060006101000a81549073ffffffffffffffffffffffffffffffffffffffff02191690556001600360008573ffffffffffffffffffffffffffffffffffffffff1673ffffffffffffffffffffffffffffffffffffffff168152602001908152602001600020600082825403925050819055506001600360008473ffffffffffffffffffffffffffffffffffffffff1673ffffffffffffffffffffffffffffffffffffffff16815260200190815260200160002060008282540192505081905550816002600083815260200190815260200160002060006101000a81548173ffffffffffffffffffffffffffffffffffffffff021916908373ffffffffffffffffffffffffffffffffffffffff160217905550808273ffffffffffffffffffffffffffffffffffffffff168473ffffffffffffffffffffffffffffffffffffffff167fddf252ad1be2c89b69c2b068fc378daa952ba7f163c4a11628f55a4df523b3ef60405160405180910390a46111ab83838360016117dd565b505050565b6111c1816111bc610d60565b6117e3565b50565b6111ce8282610875565b6112a15760016007600084815260200190815260200160002060000160008373ffffffffffffffffffffffffffffffffffffffff1673ffffffffffffffffffffffffffffffffffffffff16815260200190815260200160002060006101000a81548160ff021916908315150217905550611246610d60565b73ffffffffffffffffffffffffffffffffffffffff168173ffffffffffffffffffffffffffffffffffffffff16837f2f8788117e7eff1d82e926ec794901d17c78024a50270940304540a733656f0d60405160405180910390a45b5050565b6112af8282610875565b156113835760006007600084815260200190815260200160002060000160008373ffffffffffffffffffffffffffffffffffffffff1673ffffffffffffffffffffffffffffffffffffffff16815260200190815260200160002060006101000a81548160ff021916908315150217905550611328610d60565b73ffffffffffffffffffffffffffffffffffffffff168173ffffffffffffffffffffffffffffffffffffffff16837ff6391f5c32d9c69d2a47ea670b442974b53935d1edc7fd64eb21e047a839171b60405160405180910390a45b5050565b60006002600083815260200190815260200160002060009054906101000a900473ffffffffffffffffffffffffffffffffffffffff169050919050565b8173ffffffffffffffffffffffffffffffffffffffff168373ffffffffffffffffffffffffffffffffffffffff161415611433576040517f08c379a000000000000000000000000000000000000000000000000000000000815260040161142a906126be565b60405180910390fd5b80600560008573ffffffffffffffffffffffffffffffffffffffff1673ffffffffffffffffffffffffffffffffffffffff16815260200190815260200160002060008473ffffffffffffffffffffffffffffffffffffffff1673ffffffffffffffffffffffffffffffffffffffff16815260200190815260200160002060006101000a81548160ff0219169083151502179055508173ffffffffffffffffffffffffffffffffffffffff168373ffffffffffffffffffffffffffffffffffffffff167f17307eab39ab6107e8899845ad3d59bd9653f200f220920489ca2b5937696c318360405161152491906125c6565b60405180910390a3505050565b61153c848484610eb6565b61154884848484611868565b611587576040517f08c379a000000000000000000000000000000000000000000000000000000000815260040161157e9061265e565b60405180910390fd5b50505050565b606060405180602001604052806000815250905090565b60606115af82610d15565b60006115b961158d565b905060008151116115d95760405180602001604052806000815250611604565b806115e3846119ff565b6040516020016115f4929190612501565b6040516020818303038152906040525b915050919050565b60007f01ffc9a7000000000000000000000000000000000000000000000000000000007bffffffffffffffffffffffffffffffffffffffffffffffffffffffff1916827bffffffffffffffffffffffffffffffffffffffffffffffffffffffff1916149050919050565b60008073ffffffffffffffffffffffffffffffffffffffff1661169883611387565b73ffffffffffffffffffffffffffffffffffffffff1614159050919050565b60018111156117d757600073ffffffffffffffffffffffffffffffffffffffff168473ffffffffffffffffffffffffffffffffffffffff161461174b5780600360008673ffffffffffffffffffffffffffffffffffffffff1673ffffffffffffffffffffffffffffffffffffffff168152602001908152602001600020600082825461174391906128e2565b925050819055505b600073ffffffffffffffffffffffffffffffffffffffff168373ffffffffffffffffffffffffffffffffffffffff16146117d65780600360008573ffffffffffffffffffffffffffffffffffffffff1673ffffffffffffffffffffffffffffffffffffffff16815260200190815260200160002060008282546117ce9190612832565b925050819055505b5b50505050565b50505050565b6117ed8282610875565b611864576117fa81611ad7565b6118088360001c6020611b04565b604051602001611819929190612525565b6040516020818303038152906040526040517f08c379a000000000000000000000000000000000000000000000000000000000815260040161185b91906125fc565b60405180910390fd5b5050565b60006118898473ffffffffffffffffffffffffffffffffffffffff16611d40565b156119f2578373ffffffffffffffffffffffffffffffffffffffff1663150b7a026118b2610d60565b8786866040518563ffffffff1660e01b81526004016118d4949392919061257a565b602060405180830381600087803b1580156118ee57600080fd5b505af192505050801561191f57506040513d601f19601f8201168201806040525081019061191c9190612201565b60015b6119a2573d806000811461194f576040519150601f19603f3d011682016040523d82523d6000602084013e611954565b606091505b5060008151141561199a576040517f08c379a00000000000000000000000000000000000000000000000000000000081526004016119919061265e565b60405180910390fd5b805181602001fd5b63150b7a0260e01b7bffffffffffffffffffffffffffffffffffffffffffffffffffffffff1916817bffffffffffffffffffffffffffffffffffffffffffffffffffffffff1916149150506119f7565b600190505b949350505050565b606060006001611a0e84611d63565b01905060008167ffffffffffffffff811115611a2d57611a2c612b1f565b5b6040519080825280601f01601f191660200182016040528015611a5f5781602001600182028036833780820191505090505b509050600082602001820190505b600115611acc578080600190039150507f3031323334353637383961626364656600000000000000000000000000000000600a86061a8153600a8581611ab657611ab5612a92565b5b0494506000851415611ac757611acc565b611a6d565b819350505050919050565b6060611afd8273ffffffffffffffffffffffffffffffffffffffff16601460ff16611b04565b9050919050565b606060006002836002611b179190612888565b611b219190612832565b67ffffffffffffffff811115611b3a57611b39612b1f565b5b6040519080825280601f01601f191660200182016040528015611b6c5781602001600182028036833780820191505090505b5090507f300000000000000000000000000000000000000000000000000000000000000081600081518110611ba457611ba3612af0565b5b60200101907effffffffffffffffffffffffffffffffffffffffffffffffffffffffffffff1916908160001a9053507f780000000000000000000000000000000000000000000000000000000000000081600181518110611c0857611c07612af0565b5b60200101907effffffffffffffffffffffffffffffffffffffffffffffffffffffffffffff1916908160001a90535060006001846002611c489190612888565b611c529190612832565b90505b6001811115611cf2577f3031323334353637383961626364656600000000000000000000000000000000600f861660108110611c9457611c93612af0565b5b1a60f81b828281518110611cab57611caa612af0565b5b60200101907effffffffffffffffffffffffffffffffffffffffffffffffffffffffffffff1916908160001a905350600485901c945080611ceb906129d6565b9050611c55565b5060008414611d36576040517f08c379a0000000000000000000000000000000000000000000000000000000008152600401611d2d9061261e565b60405180910390fd5b8091505092915050565b6000808273ffffffffffffffffffffffffffffffffffffffff163b119050919050565b600080600090507a184f03e93ff9f4daa797ed6e38ed64bf6a1f0100000000000000008310611dc1577a184f03e93ff9f4daa797ed6e38ed64bf6a1f0100000000000000008381611db757611db6612a92565b5b0492506040810190505b6d04ee2d6d415b85acef81000000008310611dfe576d04ee2d6d415b85acef81000000008381611df457611df3612a92565b5b0492506020810190505b662386f26fc100008310611e2d57662386f26fc100008381611e2357611e22612a92565b5b0492506010810190505b6305f5e1008310611e56576305f5e1008381611e4c57611e4b612a92565b5b0492506008810190505b6127108310611e7b576127108381611e7157611e70612a92565b5b0492506004810190505b60648310611e9e5760648381611e9457611e93612a92565b5b0492506002810190505b600a8310611ead576001810190505b80915050919050565b6000611ec9611ec4846127be565b612799565b905082815260208101848484011115611ee557611ee4612b53565b5b611ef0848285612994565b509392505050565b600081359050611f0781612eb8565b92915050565b600081359050611f1c81612ecf565b92915050565b600081359050611f3181612ee6565b92915050565b600081359050611f4681612efd565b92915050565b600081519050611f5b81612efd565b92915050565b600082601f830112611f7657611f75612b4e565b5b8135611f86848260208601611eb6565b91505092915050565b600081359050611f9e81612f14565b92915050565b600060208284031215611fba57611fb9612b5d565b5b6000611fc884828501611ef8565b91505092915050565b60008060408385031215611fe857611fe7612b5d565b5b6000611ff685828601611ef8565b925050602061200785828601611ef8565b9150509250929050565b60008060006060848603121561202a57612029612b5d565b5b600061203886828701611ef8565b935050602061204986828701611ef8565b925050604061205a86828701611f8f565b9150509250925092565b6000806000806080858703121561207e5761207d612b5d565b5b600061208c87828801611ef8565b945050602061209d87828801611ef8565b93505060406120ae87828801611f8f565b925050606085013567ffffffffffffffff8111156120cf576120ce612b58565b5b6120db87828801611f61565b91505092959194509250565b600080604083850312156120fe576120fd612b5d565b5b600061210c85828601611ef8565b925050602061211d85828601611f0d565b9150509250929050565b6000806040838503121561213e5761213d612b5d565b5b600061214c85828601611ef8565b925050602061215d85828601611f8f565b9150509250929050565b60006020828403121561217d5761217c612b5d565b5b600061218b84828501611f22565b91505092915050565b600080604083850312156121ab576121aa612b5d565b5b60006121b985828601611f22565b92505060206121ca85828601611ef8565b9150509250929050565b6000602082840312156121ea576121e9612b5d565b5b60006121f884828501611f37565b91505092915050565b60006020828403121561221757612216612b5d565b5b600061222584828501611f4c565b91505092915050565b60006020828403121561224457612243612b5d565b5b600061225284828501611f8f565b91505092915050565b61226481612916565b82525050565b61227381612928565b82525050565b61228281612934565b82525050565b6000612293826127ef565b61229d8185612805565b93506122ad8185602086016129a3565b6122b681612b62565b840191505092915050565b60006122cc826127fa565b6122d68185612816565b93506122e68185602086016129a3565b6122ef81612b62565b840191505092915050565b6000612305826127fa565b61230f8185612827565b935061231f8185602086016129a3565b80840191505092915050565b6000612338602083612816565b915061234382612b73565b602082019050919050565b600061235b602d83612816565b915061236682612b9c565b604082019050919050565b600061237e603283612816565b915061238982612beb565b604082019050919050565b60006123a1602583612816565b91506123ac82612c3a565b604082019050919050565b60006123c4602483612816565b91506123cf82612c89565b604082019050919050565b60006123e7601983612816565b91506123f282612cd8565b602082019050919050565b600061240a602983612816565b915061241582612d01565b604082019050919050565b600061242d601883612816565b915061243882612d50565b602082019050919050565b6000612450602183612816565b915061245b82612d79565b604082019050919050565b6000612473603d83612816565b915061247e82612dc8565b604082019050919050565b6000612496601783612827565b91506124a182612e17565b601782019050919050565b60006124b9601183612827565b91506124c482612e40565b601182019050919050565b60006124dc602f83612816565b91506124e782612e69565b604082019050919050565b6124fb8161298a565b82525050565b600061250d82856122fa565b915061251982846122fa565b91508190509392505050565b600061253082612489565b915061253c82856122fa565b9150612547826124ac565b915061255382846122fa565b91508190509392505050565b6000602082019050612574600083018461225b565b92915050565b600060808201905061258f600083018761225b565b61259c602083018661225b565b6125a960408301856124f2565b81810360608301526125bb8184612288565b905095945050505050565b60006020820190506125db600083018461226a565b92915050565b60006020820190506125f66000830184612279565b92915050565b6000602082019050818103600083015261261681846122c1565b905092915050565b600060208201905081810360008301526126378161232b565b9050919050565b600060208201905081810360008301526126578161234e565b9050919050565b6000602082019050818103600083015261267781612371565b9050919050565b6000602082019050818103600083015261269781612394565b9050919050565b600060208201905081810360008301526126b7816123b7565b9050919050565b600060208201905081810360008301526126d7816123da565b9050919050565b600060208201905081810360008301526126f7816123fd565b9050919050565b6000602082019050818103600083015261271781612420565b9050919050565b6000602082019050818103600083015261273781612443565b9050919050565b6000602082019050818103600083015261275781612466565b9050919050565b60006020820190508181036000830152612777816124cf565b9050919050565b600060208201905061279360008301846124f2565b92915050565b60006127a36127b4565b90506127af8282612a32565b919050565b6000604051905090565b600067ffffffffffffffff8211156127d9576127d8612b1f565b5b6127e282612b62565b9050602081019050919050565b600081519050919050565b600081519050919050565b600082825260208201905092915050565b600082825260208201905092915050565b600081905092915050565b600061283d8261298a565b91506128488361298a565b9250827fffffffffffffffffffffffffffffffffffffffffffffffffffffffffffffffff0382111561287d5761287c612a63565b5b828201905092915050565b60006128938261298a565b915061289e8361298a565b9250817fffffffffffffffffffffffffffffffffffffffffffffffffffffffffffffffff04831182151516156128d7576128d6612a63565b5b828202905092915050565b60006128ed8261298a565b91506128f88361298a565b92508282101561290b5761290a612a63565b5b828203905092915050565b60006129218261296a565b9050919050565b60008115159050919050565b6000819050919050565b60007fffffffff0000000000000000000000000000000000000000000000000000000082169050919050565b600073ffffffffffffffffffffffffffffffffffffffff82169050919050565b6000819050919050565b82818337600083830152505050565b60005b838110156129c15780820151818401526020810190506129a6565b838111156129d0576000848401525b50505050565b60006129e18261298a565b915060008214156129f5576129f4612a63565b5b600182039050919050565b60006002820490506001821680612a1857607f821691505b60208210811415612a2c57612a2b612ac1565b5b50919050565b612a3b82612b62565b810181811067ffffffffffffffff82111715612a5a57612a59612b1f565b5b80604052505050565b7f4e487b7100000000000000000000000000000000000000000000000000000000600052601160045260246000fd5b7f4e487b7100000000000000000000000000000000000000000000000000000000600052601260045260246000fd5b7f4e487b7100000000000000000000000000000000000000000000000000000000600052602260045260246000fd5b7f4e487b7100000000000000000000000000000000000000000000000000000000600052603260045260246000fd5b7f4e487b7100000000000000000000000000000000000000000000000000000000600052604160045260246000fd5b600080fd5b600080fd5b600080fd5b600080fd5b6000601f19601f8301169050919050565b7f537472696e67733a20686578206c656e67746820696e73756666696369656e74600082015250565b7f4552433732313a2063616c6c6572206973206e6f7420746f6b656e206f776e6560008201527f72206f7220617070726f76656400000000000000000000000000000000000000602082015250565b7f4552433732313a207472616e7366657220746f206e6f6e20455243373231526560008201527f63656976657220696d706c656d656e7465720000000000000000000000000000602082015250565b7f4552433732313a207472616e736665722066726f6d20696e636f72726563742060008201527f6f776e6572000000000000000000000000000000000000000000000000000000602082015250565b7f4552433732313a207472616e7366657220746f20746865207a65726f2061646460008201527f7265737300000000000000000000000000000000000000000000000000000000602082015250565b7f4552433732313a20617070726f766520746f2063616c6c657200000000000000600082015250565b7f4552433732313a2061646472657373207a65726f206973206e6f74206120766160008201527f6c6964206f776e65720000000000000000000000000000000000000000000000602082015250565b7f4552433732313a20696e76616c696420746f6b656e2049440000000000000000600082015250565b7f4552433732313a20617070726f76616c20746f2063757272656e74206f776e6560008201527f7200000000000000000000000000000000000000000000000000000000000000602082015250565b7f4552433732313a20617070726f76652063616c6c6572206973206e6f7420746f60008201527f6b656e206f776e6572206f7220617070726f76656420666f7220616c6c000000602082015250565b7f416363657373436f6e74726f6c3a206163636f756e7420000000000000000000600082015250565b7f206973206d697373696e6720726f6c6520000000000000000000000000000000600082015250565b7f416363657373436f6e74726f6c3a2063616e206f6e6c792072656e6f756e636560008201527f20726f6c657320666f722073656c660000000000000000000000000000000000602082015250565b612ec181612916565b8114612ecc57600080fd5b50565b612ed881612928565b8114612ee357600080fd5b50565b612eef81612934565b8114612efa57600080fd5b50565b612f068161293e565b8114612f1157600080fd5b50565b612f1d8161298a565b8114612f2857600080fd5b5056fea264697066735822122070eb78d349bdd97d3413e0ab4492e04a657f885a5e94cb0ec526ea34aafa918464736f6c63430008070033",
  "devdoc": {
    "kind": "dev",
    "methods": {
      "approve(address,uint256)": {
        "details": "See {IERC721-approve}."
      },
      "balanceOf(address)": {
        "details": "See {IERC721-balanceOf}."
      },
      "getApproved(uint256)": {
        "details": "See {IERC721-getApproved}."
      },
      "getRoleAdmin(bytes32)": {
        "details": "Returns the admin role that controls `role`. See {grantRole} and {revokeRole}. To change a role's admin, use {_setRoleAdmin}."
      },
      "grantRole(bytes32,address)": {
        "details": "Grants `role` to `account`. If `account` had not been already granted `role`, emits a {RoleGranted} event. Requirements: - the caller must have ``role``'s admin role. May emit a {RoleGranted} event."
      },
      "hasRole(bytes32,address)": {
        "details": "Returns `true` if `account` has been granted `role`."
      },
      "isApprovedForAll(address,address)": {
        "details": "See {IERC721-isApprovedForAll}."
      },
      "name()": {
        "details": "See {IERC721Metadata-name}."
      },
      "ownerOf(uint256)": {
        "details": "See {IERC721-ownerOf}."
      },
      "renounceRole(bytes32,address)": {
        "details": "Revokes `role` from the calling account. Roles are often managed via {grantRole} and {revokeRole}: this function's purpose is to provide a mechanism for accounts to lose their privileges if they are compromised (such as when a trusted device is misplaced). If the calling account had been revoked `role`, emits a {RoleRevoked} event. Requirements: - the caller must be `account`. May emit a {RoleRevoked} event."
      },
      "revokeRole(bytes32,address)": {
        "details": "Revokes `role` from `account`. If `account` had been granted `role`, emits a {RoleRevoked} event. Requirements: - the caller must have ``role``'s admin role. May emit a {RoleRevoked} event."
      },
      "safeTransferFrom(address,address,uint256)": {
        "details": "See {IERC721-safeTransferFrom}."
      },
      "safeTransferFrom(address,address,uint256,bytes)": {
        "details": "See {IERC721-safeTransferFrom}."
      },
      "setApprovalForAll(address,bool)": {
        "details": "See {IERC721-setApprovalForAll}."
      },
      "symbol()": {
        "details": "See {IERC721Metadata-symbol}."
      },
      "tokenURI(uint256)": {
        "details": "See {IERC721Metadata-tokenURI}."
      },
      "transferFrom(address,address,uint256)": {
        "details": "See {IERC721-transferFrom}."
      }
    },
    "version": 1
  },
  "userdoc": {
    "kind": "user",
    "methods": {},
    "version": 1
  },
  "storageLayout": {
    "storage": [
      {
        "astId": 414,
        "contract": "contracts/LazyNFT.sol:LazyNFT",
        "label": "_name",
        "offset": 0,
        "slot": "0",
        "type": "t_string_storage"
      },
      {
        "astId": 416,
        "contract": "contracts/LazyNFT.sol:LazyNFT",
        "label": "_symbol",
        "offset": 0,
        "slot": "1",
        "type": "t_string_storage"
      },
      {
        "astId": 420,
        "contract": "contracts/LazyNFT.sol:LazyNFT",
        "label": "_owners",
        "offset": 0,
        "slot": "2",
        "type": "t_mapping(t_uint256,t_address)"
      },
      {
        "astId": 424,
        "contract": "contracts/LazyNFT.sol:LazyNFT",
        "label": "_balances",
        "offset": 0,
        "slot": "3",
        "type": "t_mapping(t_address,t_uint256)"
      },
      {
        "astId": 428,
        "contract": "contracts/LazyNFT.sol:LazyNFT",
        "label": "_tokenApprovals",
        "offset": 0,
        "slot": "4",
        "type": "t_mapping(t_uint256,t_address)"
      },
      {
        "astId": 434,
        "contract": "contracts/LazyNFT.sol:LazyNFT",
        "label": "_operatorApprovals",
        "offset": 0,
        "slot": "5",
        "type": "t_mapping(t_address,t_mapping(t_address,t_bool))"
      },
      {
        "astId": 1480,
        "contract": "contracts/LazyNFT.sol:LazyNFT",
        "label": "_tokenURIs",
        "offset": 0,
        "slot": "6",
        "type": "t_mapping(t_uint256,t_string_storage)"
      },
      {
        "astId": 24,
        "contract": "contracts/LazyNFT.sol:LazyNFT",
        "label": "_roles",
        "offset": 0,
        "slot": "7",
        "type": "t_mapping(t_bytes32,t_struct(RoleData)19_storage)"
      },
      {
        "astId": 3590,
        "contract": "contracts/LazyNFT.sol:LazyNFT",
        "label": "pendingWithdrawls",
        "offset": 0,
        "slot": "8",
        "type": "t_mapping(t_address,t_uint256)"
      }
    ],
    "types": {
      "t_address": {
        "encoding": "inplace",
        "label": "address",
        "numberOfBytes": "20"
      },
      "t_bool": {
        "encoding": "inplace",
        "label": "bool",
        "numberOfBytes": "1"
      },
      "t_bytes32": {
        "encoding": "inplace",
        "label": "bytes32",
        "numberOfBytes": "32"
      },
      "t_mapping(t_address,t_bool)": {
        "encoding": "mapping",
        "key": "t_address",
        "label": "mapping(address => bool)",
        "numberOfBytes": "32",
        "value": "t_bool"
      },
      "t_mapping(t_address,t_mapping(t_address,t_bool))": {
        "encoding": "mapping",
        "key": "t_address",
        "label": "mapping(address => mapping(address => bool))",
        "numberOfBytes": "32",
        "value": "t_mapping(t_address,t_bool)"
      },
      "t_mapping(t_address,t_uint256)": {
        "encoding": "mapping",
        "key": "t_address",
        "label": "mapping(address => uint256)",
        "numberOfBytes": "32",
        "value": "t_uint256"
      },
      "t_mapping(t_bytes32,t_struct(RoleData)19_storage)": {
        "encoding": "mapping",
        "key": "t_bytes32",
        "label": "mapping(bytes32 => struct AccessControl.RoleData)",
        "numberOfBytes": "32",
        "value": "t_struct(RoleData)19_storage"
      },
      "t_mapping(t_uint256,t_address)": {
        "encoding": "mapping",
        "key": "t_uint256",
        "label": "mapping(uint256 => address)",
        "numberOfBytes": "32",
        "value": "t_address"
      },
      "t_mapping(t_uint256,t_string_storage)": {
        "encoding": "mapping",
        "key": "t_uint256",
        "label": "mapping(uint256 => string)",
        "numberOfBytes": "32",
        "value": "t_string_storage"
      },
      "t_string_storage": {
        "encoding": "bytes",
        "label": "string",
        "numberOfBytes": "32"
      },
      "t_struct(RoleData)19_storage": {
        "encoding": "inplace",
        "label": "struct AccessControl.RoleData",
        "members": [
          {
            "astId": 16,
            "contract": "contracts/LazyNFT.sol:LazyNFT",
            "label": "members",
            "offset": 0,
            "slot": "0",
            "type": "t_mapping(t_address,t_bool)"
          },
          {
            "astId": 18,
            "contract": "contracts/LazyNFT.sol:LazyNFT",
            "label": "adminRole",
            "offset": 0,
            "slot": "1",
            "type": "t_bytes32"
          }
        ],
        "numberOfBytes": "64"
      },
      "t_uint256": {
        "encoding": "inplace",
        "label": "uint256",
        "numberOfBytes": "32"
      }
    }
  }
}